:020000040800F2
:10000000981A0020D50000089D1600084D1600081B
:1000100000000000000000000000000000000000E0
:10002000000000000000000000000000A116000811
:1000300000000000000000009F160008A316000842
:10004000E700000800000000E7000008E7000008E3
:10005000E7000008E7000008E7000008E7000008E4
:1000600000000000E7000008E7000008E7000008C3
:10007000E7000008E7000008E700000800000000B3
:10008000E70000080000000000000000E700000892
:1000900000000000E7000008E7000008E700000893
:1000A000E7000008E7000008E7000008E700000894
:1000B000E700000800000000000000000000000051
:1000C0000348854600F0B6FC004800472D2800088C
:1000D000981A00200448804704480047FEE7FEE7DE
:1000E000FEE7FEE7FEE7FEE72D170008C100000867
:1000F00030B50B46014600202022012409E00D46C0
:10010000D5409D4205D31D469540491B2546954047
:1001100040191546521E002DF1DC30BD70B500248B
:100120002546002801DA01244042002901DA012590
:100130004942FFF7DDFFAC4200D04042002C00D026
:10014000494270BDD2B201E00270401C491EFBD290
:1001500070470022F6E710B513460A4604461946D2
:10016000FFF7F0FF204610BDF8B502464A40D40F15
:1001700042004B0052085B089A4202D202460846EF
:1001800011464A0023D0C30D4A00DDB2120EAD1A4B
:10019000202D35DA49020126490AF6058A19002C74
:1001A00000D0524220214F1B1146B9402A4110185D
:1001B000C20D9A4221D0002C17D0012D08DCDA059F
:1001C000801AD20F8019D207DBB200F0EBFAF8BD2B
:1001D000DA05801A012340001B06C01880185A4215
:1001E0008018CA0F1043490007E04908C2071143AD
:1001F000DA05801A80194008801800F0CBFAF8BDA3
:1002000061000122511A001BF7E70122D207514079
:10021000AAE70122D2075040A6E7024670B54A403D
:10022000D30FDB0740002DD04A002AD0010E140E58
:10023000000212020919400A520A8418E501044614
:100240005443000A120A2E045043A4194219200CE8
:10025000C543AA18120C0125AD03521C52191204F1
:100260007F39240400D0521C104301D44000491EA1
:10027000C2B20C06C0092018401C4008802A02D0D7
:1002800003E0002070BD40084000002900DA002093
:10029000184370BD70B502464A40D50F40004A0071
:1002A000ED0740085208002814D0002A12D0C40DCF
:1002B000D30D41020120C0055202490A520AE41A34
:1002C000091812187D34914201D3641C00E04900E2
:1002D000002C01DA002070BD0023914201D3891A5D
:1002E0000343400849000028F7D100290AD0914271
:1002F00002D10121C90705E0914201D2012101E0AB
:100300000121C943E005C018401900F043FA70BD4F
:10031000F0B507460846584087B0C00F0490480023
:100320000E46590040084908BC1A884105D2384693
:1003300031461E4617460B460246580040081043F9
:100340004CD0300D039040055900400D490D0590EB
:10035000401A0290402872DA18030121000B0905A7
:100360000843019004980092002805D00199524258
:100370000020884100920190029840210A1A0199B8
:10038000009800F0D3F905460C466B4607CB00F009
:10039000EEF9C0197141039A0E0D0023D71756408C
:1003A0001A467A40164344D0049A002A2DD0029A65
:1003B000012A039A15DC1205C01A9141012636055F
:1003C000001C7141D20F059ED20700930192029644
:1003D0002A46234600F02CFA07B0F0BD38463146D5
:1003E000FAE71605224A0F46B218C01AB741012192
:1003F0000905001C4F4100187F411146181879412A
:10040000E20F10436D19644113E0E2076D081543D4
:100410006408C2071443039A01261205C01A9141C9
:100420003605001C7141CE07400830434908C0180A
:1004300051412A46234600F0EEF9CDE7FFE7049844
:1004400001224000C117121A00238B410498314643
:10045000C417381AA141EEE730B40124E407634021
:1004600030BC55E730B40124E407614030BC4FE7AD
:100470000000E0FFF0B50C465C4085B0E40FE407F7
:1004800003944C000026640859009446490802462B
:100490000296224321D062460A431ED06200570DC5
:1004A0004A000E032303550D012402462C4924055E
:1004B000781B1B0B360B40182343264361460090E4
:1004C0001C46501AB44103D30098401C009002E02F
:1004D000921800985B41002803DA0020014605B01D
:1004E000F0BD0020012109050746864611E064465B
:1004F0001D46141BB54106D36546521BB3417446D5
:1005000007430C43A646CD074008490828439218E4
:100510005B4105460D43EAD11046184313D06046AF
:10052000194650407140084306D06046101AB34146
:1005300006D20122002306E000220123DB0702E0AD
:100540000122D2435310009874460105381C6141C2
:10055000029C039D0019694100F05DF9BFE70000AE
:10056000FD03000070B54B005B0803430BD04B004C
:100570005C0D002633466542B341D417AD1AA34142
:1005800002DB0020014670BD12053018514170BDDC
:10059000C217C10F504010B54018CA07962300215A
:1005A00000F000F910BD10B500229623114600F0AE
:1005B000F9F810BD0EB5C217C10F5040CA07401858
:1005C0000021054B0293019200910A460B4600F070
:1005D0002FF903B000BD000033040000C20F41003A
:1005E00040020123400ADB05D207090EC0187F290B
:1005F00001DA00207047962903DC9623591AC84077
:1006000001E096398840002AF4D04042704700004B
:1006100070B5CD0F4A0009030123090B1B051943CF
:100620000B4BED070024520D9A4201DA002070BDF9
:10063000074B34339A4203DC9A1A00F087F802E041
:100640000449511888402C43F1D0404270BD00004D
:10065000FF030000CDFBFFFFC20FD20740004008A0
:100660000BD0C10D0723DB01C91840020905400A60
:100670001143C208400711437047002001467047EC
:10068000CB0FDB07490010B5490802460A4307D0E3
:100690000A0D07240903E401090B121B002A01DCDF
:1006A000002010BDC900440F0C43C100E018D20562
:1006B000801800F06FF810BD0122D207002800DB7F
:1006C000101A002900DB511A88427047F0B51FB498
:1006D0000646002082B005464024019100901BE0B0
:1006E000019922460F46304600F030F8049A059BE7
:1006F000801A994110D310461946224600F016F888
:10070000361A8F410197224601200021009F00F0F8
:100710000DF838184D4100902046641E0028DFDC9B
:10072000019B00982946324607B0F0BD10B5202A3B
:1007300004DB0146203A9140002010BD9140202367
:100740009C1A0346E3401943904010BD10B5202A7F
:1007500004DB0846203AD040002110BD0B46D340B0
:10076000D0402024A21A91400843194610BD10B56C
:10077000202A06DBCB170846203A1041C1170B434D
:1007800006E00B461341D0402024A21A91400843B2
:10079000194610BD002904DA401C490001D1400867
:1007A0004000704770B40024050C05D110240004EB
:1007B00002D1002921D01124050E01D100020834F4
:1007C000050F01D10001241D850F01D18000A41C5B
:1007D000002801DB4000641C002908D020252E1BC6
:1007E0000D46F540A14000D00121294308430106F0
:1007F0001B1B000ADB1D02D5002070BC7047DB0507
:10080000181880180029F8DA401C4900F5D170BC8E
:1008100040084000704710B5002B08DA0024401C47
:10082000614192185B411A4301D14008400010BD5C
:10083000F0B51FB482B005460C0003D0084601F0A5
:1008400055F902E001F052F92030024600902146AD
:100850002846FFF76BFF049B059A04460F46184392
:100860001143084314D0184610431BD00098402170
:100870000A1A18460599FFF769FF05460E46009AC1
:1008800005990498FFF752FF084305D0012004E0C2
:100890002046394607B0F0BD0020C11705430E437E
:1008A0002C43374300990E986305401A7905E40AF2
:1008B00000220C43FD0A0A3002D500200146E9E778
:1008C0000105101969410C9C0D9D00196941FFF744
:1008D000A2FFDFE7F0B51FB488B00B990998002498
:1008E00048400999C00F490049080991C0070B9970
:1008F0000090490049080B9109990898A6460843B9
:100900001CD00B990A98084318D00998012440007C
:10091000420D4800410D099824050003000B2043B7
:1009200009900B980003000B20430B9050181C49B2
:100930004018002201901446104605E000200146B0
:100940000DB0F0BD032801DA034600E003239C4606
:10095000C11A0AAE0AE05F0008ADED5B4F00F75B1D
:100960007D430027AA187C41491C5B1E6145F2DDCE
:10097000410004AB5A522104120C0A43240C401CBF
:100980000828DFDB019802900099704601910090E1
:10099000059B049A07990698FFF74AFFD0E70000E5
:1009A0000DFCFFFF4A0009030123090B1B05194336
:1009B0000A4B10B5520D9A4202DA0020014610BDD2
:1009C000064B34339A4203DC9A1AFFF7BFFE10BD80
:1009D000034BD218FFF7AAFE10BD0000FF03000072
:1009E000CDFBFFFF10B5002904DB0124E4074042E2
:1009F0008C412146002B04DB1C460123DB075242BD
:100A0000A3418B4200D1824210BD000010B50029E5
:100A100004DB0124E40740428C412146002B04DB27
:100A20001C460123DB075242A341994200D1904268
:100A300010BD0000064C0125064E05E0E36807CC1A
:100A40002B430C3C98471034B442F7D3FFF73CFBE0
:100A500098410008B841000870B58C180578401C12
:100A60006B075B0F01D10378401C2A1106D1027875
:100A7000401C03E006780E70401C491C5B1EF9D137
:100A80002B0705D40023521E0DD40B70491CFAE726
:100A90000378401CCB1A921C03E01D780D70491C92
:100AA0005B1C521EF9D5A142D8D3002070BD0000B6
:100AB000F0B50023032498E001259D402A407DD015
:100AC0000E79B607B60F012E01D0022E16D1866818
:100AD0002746B4465E00B646B7406646BE43B446B7
:100AE000CF687646B7406646374387604668AE4370
:100AF0000D79ED06ED0F9D40354345600D79ED43D1
:100B0000AD0708D0C5685F002646BE40B5438E6875
:100B1000BE402E43C6600D79AD07AD0F022D0ED13C
:100B2000DD08AD002D18AC462D6A5E07F60E0F27C6
:100B3000B740BD430F69B7402F4365462F62056834
:100B40005F002646BE40B5430E79B607B60FBE40DD
:100B50002E4306604D68AD03AD0F45D09E08264D6F
:100B6000B6007519AC462D6E9E07F60E0F27B740DE
:100B7000BD4305273F07B84201D100270FE01F4FB3
:100B8000B84201D101270AE01D4FB84201D1022726
:100B900005E01C4FB84201D1032700E00527B7400C
:100BA0002F4365462F66144E803635684F6895434F
:100BB000FF0300D515433560756800E014E04F6809
:100BC0009543BF0300D5154375600B4E35684F68DC
:100BD0009543FF0200D51543356075684F6895430E
:100BE000BF0200D5154375605B1C0A681546DD40E1
:100BF00000D061E7F0BD0000001802400004005082
:100C000000080050000C0050002A01D0816170479C
:100C100081627047014880687047000038030020F7
:100C20000248816802788918816070473803002083
:100C300010B50848002401688215114301600320A3
:100C400000F00AF8002801D0012401E000F028F8A3
:100C5000204610BD0020024070B50F4E00243178B0
:100C60000546002915D07D20C000FFF741FA014656
:100C70000A480068FFF73CFA00F0F0FB002808D1B2
:100C8000042D06D200222946401E00F01FF8756090
:100C900000E00124204670BD3803002044030020FA
:100CA00008B509480168012211430160006810403D
:100CB000009005484038C26B01040A43C263C06B10
:100CC0000840009008BD00004010024010B500F040
:100CD00047FF10BD10B50F4C21680322520291430B
:100CE00001432160C11FFF39FA390ED10A4806219C
:100CF000006848430949FFF7FBF9401C02E000285F
:100D000005D0401E61694905F9D4002010BD0320BB
:100D100010BD0000007000404403002040420F005E
:100D2000F8B50446006800264D4D800358D54C4860
:100D300000274038C06BC00009D449484038C26B16
:100D400001040A43C263C06B084001270090454874
:100D50000168821511430160FFF75CFF009005E018
:100D6000FFF758FF0099401A022825D83D4800682F
:100D7000C005F5D5E8690321090208400FD0616973
:100D800081420CD0E86903210902EA698843012104
:100D900009040A43EA61EA698A43EA61E861C00733
:100DA0000FD0FFF737FF009008E0FFF733FF0099FF
:100DB000411A2D48814201D9032609E0E8698007DC
:100DC000F3D5E86903210902884361690843E861B2
:100DD000002F05D022484038C26B01048A43C26309
:100DE0002078C00705D068696168800880000843E2
:100DF00068612078800606D5686903210903884365
:100E0000A168084368612088400411D56869216998
:100E100080008008084368610121206989078842B1
:100E200006D10F484038C168012212041143C16045
:100E30002088000512D56869032189038843E16889
:100E4000084368610121E0688903884206D10448AB
:100E50004038C168012212041143C1603046F8BD18
:100E6000401002400070004088130000F8B50F46A3
:100E7000060043D04D4D28684007400FB84213D2BA
:100E80002868C008C00038432860FFF7C3FE044646
:100E900005E0FFF7BFFE011B4548814261D8286885
:100EA0004007400FB842F4D13068424C81070DD55D
:100EB000400704D5A068072109030843A060A06883
:100EC0000F2109028843B1680843A0603078C00749
:100ED00032D0706801280AD002280BD000280FD029
:100EE0003449403103280ED0C969890704E02168DC
:100EF000890301E021688901002906DB0120F8BD92
:100F000021684905F8E7096AEFE7A168C908C9003F
:100F10000143A160FFF77EFE009006E0FFF77AFE36
:100F20000099411A224881421BD8A0683821084004
:100F30007168C9008842F1D128684007400FB84263
:100F400017D91A480168C908C90039430160FFF779
:100F500061FE054607E0FFF75DFE411B1448814234
:100F600001D90320F8BD114800684007400FB8427E
:100F7000F1D13078400706D5A068072109038843DE
:100F8000F1680843A06000F031F8A1683C228909AB
:100F90001140094A515CC906C90EC840074908609A
:100FA00007480068FFF758FEF8BD00000020024027
:100FB0008813000000100240B840000844030020DD
:100FC0003C0300200648074900688968064A49042E
:100FD000490F8900515CC906C90EC840704700001E
:100FE0004403002000100240F840000810B5204CD7
:100FF000A068204A8006400F16D0A0688006410FE6
:101000001D4801290FD0A1688906490F022912D075
:10101000A0688006400F042823D0A0688006400FF7
:10102000032821D0002010BD206801218004400F3A
:101030008140104612E0E1688B07E1689B0F49068A
:10104000490F491C032B00D01046FFF751F8E16807
:101050004904490E4843E168490F491CFFF748F825
:1010600010BD0120C00310BD7D20000210BD000096
:10107000001002400024F40040787D01F8B504001F
:101080007ED020783827C007EB4D002846D0A868CE
:10109000E96838408907890F102802D008280BD04A
:1010A00001E0032908D001206268000482420AD1CD
:1010B00029680143296015E0286880032ED56068FF
:1010C0000028DDD02AE0052301211B0489049A426F
:1010D0002A6802D10A432A60EAE782432A60286824
:1010E00088432860606800280CD0FFF793FD06460F
:1010F00004E0FFF78FFD801B642873D82868800305
:10110000F7D50BE0FFF786FD064604E0FFF782FD0A
:10111000801B6428F1D828688003F7D420788007E2
:1011200069D5A868E96838408A070721920FC90283
:10113000102802D0002813D001E0022A10D0E06865
:10114000002846D028688843216908432860286819
:10115000FF21013108432860FFF75CFD06462CE0C3
:101160002A68520502D5E268002A89D06A687F237E
:101170001B029A4363691B021A436A60002800E05D
:101180008DE00ED1286888432169084328602868CB
:1011900001218004400F8140A848FEF7A9FFA8491B
:1011A0000860A8480068FFF757FD002877D122E0C3
:1011B000FFF730FD801B02289FD828684005F7D52F
:1011C00068687F21090288436169090208436860F1
:1011D00011E02968FF20013081432960FFF71AFDE3
:1011E000064605E098E0FFF715FD801B022884D82D
:1011F00028684005F7D42078934E00072ED5A868BC
:101200008006400F03280AD0A0690028306A16D053
:10121000012108433062FFF7FDFC07460BE0306A0E
:1012200080071BD5A06900289FD017E0FFF7F2FCCC
:10123000C01B022870D8306A8007F7D50EE040083E
:1012400040003062FFF7E6FC074604E0FFF7E2FCEF
:10125000C01B022860D8306A8007F7D42078400786
:101260006CD5A86800278006400F042818D0E86BCA
:10127000C00008D4E96B012000070143E963E96B72
:1012800001400127009171480168C90519D401681E
:10129000821511430160FFF7BDFC00900DE083E073
:1012A000F06980074AD5A06800287DD046E0FFF7A6
:1012B000B1FC0099401A02282ED864480068C00585
:1012C000F5D5A168012910D004200529F16911D0B4
:1012D00049084900F161F1698143F161A068002882
:1012E00016D0FFF797FC00900EE0F069012108434B
:1012F000F061F3E70143F161F7E7FFF78BFC009939
:10130000411A534881426DD8F0698007F5D50EE047
:10131000FFF780FC009007E064E0FFF77BFC00999A
:10132000411A4B4881425DD8F0698007F5D4002FFF
:1013300004D0E96B012000078143E963E0690028DC
:1013400077D0A9688906490F022951D001263606AF
:10135000022828680DD0B0432860E8688008800023
:10136000E860E8683B490840E860FFF753FC044642
:101370003AE0B0432860FFF74DFC074604E0FFF772
:1013800049FCC01B02282DD828688001F7D4616A67
:10139000206AA26A0843E16A120211430843216BE2
:1013A0000843E9682C4A00E041E011400843E86046
:1013B000286830432860E868012109070843E8608D
:1013C000FFF728FC044604E0FFF724FC001B02287A
:1013D00008D828688001F7D52BE0FFF71BFC001B1D
:1013E000022801D90320F8BD28688001F5D420E047
:1013F0000128F8D0E868226A8107890F914216D146
:101400007021626A0140914211D17F21A26A0902D2
:101410000140120291420AD11F214904E26A0140AF
:10142000914204D1400F216B4007884201D0012036
:10143000F8BD0020F8BD0000001002400024F400B8
:10144000440300203C030020401002400070004094
:1014500088130000FFFFFEEF8C80C11F094910B503
:10146000401E884201D9012010BD074C6061032154
:10147000081F00F075FB0020A061072020610020FC
:1014800010BD0000FFFFFF0000E000E070B50400A9
:1014900005D0254680356868002802D006E0012086
:1014A00070BD00202870204600F026F824206860D7
:1014B00020680168490849000160204600F0CEF923
:1014C0000128EDD0A06A002802D0204600F02FF9B4
:1014D000206841680922D2029143416020688168F6
:1014E0002A22914381602068016801221143016032
:1014F000204600F081F970BD10B586B00446142175
:101500006846FEF726FE1949206888422CD1184803
:101510000268012189030A430260006808400590BF
:1015200013484038426B01210A434263426B0A4030
:101530000592426B0A434263406B052408400590C4
:101540004802009002200190032002910491039030
:10155000240769462046FFF7ABFA0120800200907D
:1015600069462046FFF7A4FA06B010BD00380140D6
:1015700040100240FFB5064604468036706883B0CE
:101580000D46202860D1002D0CD00598002809D0E8
:101590000120A1680003814207D12069002804D1FD
:1015A000E80702D0012007B0F0BD307801284BD009
:1015B000012030700020F06021207060FFF72AFBCE
:1015C0000190274640370598B8820598F882012097
:1015D000A1680003814202D12069002804D002954D
:1015E00000250020307015E000200290F9E700226D
:1015F0008021204600F0E6F9002818D10298002842
:1016000017D02168007888620298401C0290F88AFE
:10161000401EF882F88A019B002806980090E6D1C7
:1016200000224021204600F0CDF9002808D00320F8
:10163000B9E728882168C005C00D8862AD1CE6E7BF
:10164000202070600020AEE70220ACE7FEE700003B
:1016500010B586B014216846FEF77BFD0D48426B3D
:1016600008210A434263406B0B4C0840059000225E
:1016700004212046FFF7C8FA042000900021012031
:1016800002910391019069462046FFF711FA06B0D6
:1016900010BD000000100240000C0050FEE7704733
:1016A000704710B5FFF7BCFA10BD70B598B0342183
:1016B0006846FEF74EFD00240D940E940F941821F9
:1016C00011A81094FEF745FD01204002FFF702FB30
:1016D00001252804019003200890402000950990DE
:1016E0000A90C00202260B90079680030C90684671
:1016F000FFF7C4FC002801D072B6FEE707200D906A
:101700000F9402210E9610940DA8FFF7AFFB00284E
:1017100001D072B6FEE711A811951294FFF700FBF5
:10172000002801D072B6FEE718B070BD704710B542
:10173000018DC90707D001684A6801235B049A43F9
:10174000C36A1A434A60018D890707D501684A6850
:1017500001231B049A43036B1A434A60018D490716
:1017600007D501684A6801239B049A43436B1A43D7
:101770004A60018D090707D501684A680123DB0328
:101780009A43836B1A434A60018DC90607D50268E4
:10179000916801231B039943C36B19439160018D29
:1017A000890607D501688A6801235B039A43036CA5
:1017B0001A438A60018D490612D503685A680121CF
:1017C0000905446C8A4322435A60426C8A4207D11D
:1017D0000268516803235B059943836C1943516088
:1017E000018D090607D501684A680123DB04C06C36
:1017F0009A4302434A6010BDFEB505460026803577
:101800000446EE60FFF706FA019020680068124F68
:10181000000709D501210097002249052046019BB8
:1018200000F0D0F800280DD12068006840070BD5E3
:1018300001210097002289052046019B00F0C2F893
:10184000002801D00320FEBD20206860A860E66665
:101850002E700020FEBD0000FFFFFF01F8B504461A
:1018600080682169E26908436169002511432268A3
:10187000084311684B4B19400143116021684868C7
:10188000032212039043E26810434860A169206A72
:10189000226808439168444B1940014391602068D5
:1018A000C16A626A090909011143C1623F4920689E
:1018B000884211D13E4840698007800F0FD001282F
:1018C00006D0022802D003280BD103E0022109E050
:1018D000042107E0082105E03649884201D10021B2
:1018E00000E010210120E369C003334A334E344F36
:1018F000834228D1002906D0022907D0042907D025
:10190000082941D108E0FFF75DFB03E0104603E042
:10191000FFF76CFB00283BD0616A4900715AFEF763
:10192000E7FB616840004A088018FEF7E1FB80B2DF
:1019300001461039B94227D82149491C0140000706
:10194000400F084322E0002906D0022907D00429CD
:1019500007D0082918D108E0FFF734FB03E0104650
:1019600003E0FFF743FB002812D0616A4900715A77
:10197000FEF7BEFB61684A088018FEF7B9FB80B22B
:1019800001461039B94201D9012501E02168C8603A
:101990002046012140304185018500202067606795
:1019A0002846F8BDF369FFCFFFF4FF11003801406E
:1019B00040100240004400400024F400A040000811
:1019C000EFFF0000FFB581B005461746044680359D
:1019D0000A9E54E0701C52D0FFF71CF90499401A7B
:1019E000B0422FD8002E2DD020680168490746D577
:1019F000C069C043000542D401202168C0020862CA
:101A0000EFF31080012181F3108821680B68FF2219
:101A1000A13293430B6080F31088EFF31080012113
:101A200081F3108821688A68520852008A6080F326
:101A3000108820206860A860E860002028700320DB
:101A400005B0F0BDEFF31080012181F3108821680B
:101A50000A68FF23A1339A430A6080F31088EFF3EA
:101A60001080012181F3108821688A685208520091
:101A70008A6080F3108820206860A860DDE7206815
:101A8000C1690298884304D00020B842A2D0002047
:101A9000D6E70120F9E7000010B50B4809490160BD
:101AA000E1214902416000218160C16001618161E1
:101AB000C16101620C22416242618162FFF7E6FC72
:101AC00010BD000000380140100900200FB410B50F
:101AD00003A9044B044A029800F096F910BC08BC14
:101AE00004B01847BD270008480300202021020C3D
:101AF00001D010211046020A01D01046083902090F
:101B000001D01046091F820801D01046891E4208E4
:101B100001D0881E7047081A704730B47446641E9E
:101B20002578641CAB4200D21D46635D5B00E31860
:101B300030BC18474900CA020243100000D00420FC
:101B40004A0D01D001221043044A490D914201D1AE
:101B500002210843012800D105207047FF0700003B
:101B60008307FF22DB0E9A408907090E994000285F
:101B700008DB830809489B001B181868904308433A
:101B8000186070470007000F0838830804489B005E
:101B90001B18D86990430843D861704700E400E0FF
:101BA00000ED00E0F8B504464F1EC80008382118C3
:101BB00015461E46086849683A4606239A4310D0DF
:101BC0002A463346FEF786FE3A46D200083AA31864
:101BD0001A687F1E5B68FEF79BFB06223B46934319
:101BE000EED1022F23D0042F11D0062F2FD12A4659
:101BF0003346FEF76FFEE36AA26AFEF789FB2A46C8
:101C00003346FEF767FE636A226AFEF781FB2A46C7
:101C10003346FEF75FFEE369A269FEF779FB2A46C9
:101C20003346FEF757FE63692269FEF771FB2A46C9
:101C30003346FEF74FFEE368A268FEF769FB2A46CB
:101C40003346FEF747FE63682268FEF761FBF8BD86
:101C500010B50122FEF786FC10BD000010B507216B
:101C6000024A00200907FEF77DFC10BD01030000B9
:101C7000034A10B500201107FEF774FC10BD0000E8
:101C800001FDFFFF02E008C8121F08C1002AFAD1B7
:101C900070477047002001E001C1121F002AFBD1EC
:101CA000704700000149086070470000540300209D
:101CB000F0B51FB484B007980699020D014314D003
:101CC0004A484B491018484305140F9801280E98AC
:101CD0001CD0281A401C0024464E4749009401910C
:101CE0000290002814DA474227E00F98012443A30A
:101CF000012808D0002104980F9A84600360C26014
:101D0000416009B0F0BD0E98C143F4E74042E2E7FC
:101D1000074612E0F80707D022463346019900989B
:101D2000FEF7D8FD01910090224633461046194631
:101D3000FEF7D0FD04460E467F10002FEAD1029830
:101D4000019B0028009A0799069802DAFEF7C2FD67
:101D500001E0FEF78FFB04460E460022284BFEF7FB
:101D600055FE03D80020C043014607E00022254B62
:101D700020463146FEF7CCFAFEF714FE102409E0A7
:101D8000002C0ADB0A220023FEF7A0FC059B303260
:101D90001A55641E02460A43F2D11122641C059BA7
:101DA000121B1C190F9B012B03D0012308430ED1DA
:101DB0000AE0084304D011200E9000200F9084E721
:101DC0000E98151A6D1E0BE00E98824202DD00235C
:101DD0006D1C03E0824201DA00236D1E002BEED061
:101DE00004980F998260C16030C08AE701FCFFFF50
:101DF000104D0000000024400000F03F30000000C3
:101E00000000F0430000E03FFFB597B00646002514
:101E100018E2252877D100242746FD49049400E0E4
:101E20000443761C32780120203A90400842F7D1D2
:101E300030782A280ED0022230780146303909291C
:101E400016D804990A235943303940181443761C94
:101E50000490F1E7189802C804911890002904DA58
:101E60000120400304434842049002200443761CAE
:101E700030782E2814D1042004437078761C2A2848
:101E800009D11898761C80C8189009E00A214F43A0
:101E9000303FC719761C3078014630390929F5D909
:101EA00030786C2810D006DC4C281AD068280ED068
:101EB0006A2817D104E0742813D07A2812D110E0D0
:101EC0000120400504430CE00121090501E0032144
:101ED00009050C437178814203D1012000052418C3
:101EE000761C761C3078119066280BD013DC5828AD
:101EF0007DD009DC00287BD04528F6D04628F4D0D8
:101F000047281AD1A5E118E0632835D0642870D09D
:101F1000652812D19DE170286CD008DC6728F1D0CB
:101F200069287BD06E280DD06F2806D1BAE07328BF
:101F30002ED0752871D0782859D01A9A19999047BF
:101F40006D1C7EE16002400F022809D003280DD0ED
:101F50000428189801680DD00D60001D189070E1DC
:101F60001898EA1701680D604A60F6E7189801684A
:101F70000D80F2E70D70F0E718986A46017811724B
:101F8000001D18900020507202A80090012005E06A
:101F9000189802C8189000200091C04361070DD521
:101FA000002101E00199491C0191B94212DA8142F4
:101FB000F8DB009A515C0029F4D10BE0002101E02C
:101FC0000199491C01918142FADB019A0099895CCF
:101FD0000029F5D1019904981A9B471A21463846E1
:101FE000199A00F097FA0199401945180BE04FE053
:101FF0002CE113E04EE0009800990078491C009114
:102000001A9A199990470198401E0190401CF2D1EC
:10201000214638461A9B199A10E137E00A20002120
:10202000009001916002410F022907D0189A01CA5D
:102030001892C2179446032908D00AE01898C01DC8
:10204000C108C90005C91891944607E000B2C2173B
:102050009446042902D140B2C1178C460022614641
:10206000944506DA0A460021404291418C462D21D2
:1020700002E0210504D52B216A461173012103E0FA
:10208000E10701D02021F7E7029155E00A200AE09C
:10209000102008E01020009000210420044301914A
:1020A000082703E008200021019100906002410F01
:1020B000022907D0189A01CA1892002294460329CF
:1020C00008D008E01898C01DC108C90005C91891BA
:1020D000944603E080B2042900D1C0B200210291ED
:1020E000210729D51199702906D0009A1021019B4A
:1020F0004A401A4305D00EE040216A46117301217F
:1021000008E06146014306D030216A4611731199F7
:10211000517302210291009A0821019B4A401A43FF
:102120000AD16146014301D1610705D530216A46D4
:10213000117301217F1E02911199582904D035A1F4
:102140000E910DA90D910DE037A1F9E76146019BB4
:10215000009AFEF7BBFA0E9B8C469B5C0D9A521EB2
:102160000D92137061460143F0D10D9805A9081A2C
:1021700020300190600703D501200004844300E073
:1021800001270198874201DD381A00E000200199FB
:1021900000904118029809180498401A0490E0032E
:1021A00006D421461A9B199A049800F0B3F94519F0
:1021B000002706E003A81A9AC05D199990476D1C84
:1021C0007F1C02988742F5DBE0030CD521461A9B61
:1021D000199A049800F09EF9451904E01A9A3020E3
:1021E000199990476D1C0099481E00900029F5DC54
:1021F00008E00D980D990078491C0D911A9A1999CB
:1022000090476D1C0199481E01900029F1DC63E1A3
:1022100009280100303132333435363738396162BC
:102220006364656600000000303132333435363780
:1022300038394142434445460000000000F05AF955
:102240004519761C3078002800D0E2E528461BB0FE
:10225000F0BD600700D406271898C01DC108C9004A
:1022600048680A680831C30FDB071891190001D0CC
:102270009CA108E0210501D59BA104E0E10701D064
:102280009AA100E09AA1430011985B08109165287B
:102290000CD006DC452809D046281DD0472841D15E
:1022A00041E0662818D067283CD13CE00021112F7E
:1022B00001DB112000E0781C0191009008A911A811
:1022C000FFF7F6FC139905910021119A15927F1CD6
:1022D00012980197009150E00120C007039001205F
:1022E000019008A9009711A8FFF7E2FC139A14992E
:1022F00005920022119B009212981593059A019263
:10230000002901D0104602E0791C40180190381ACB
:1023100001D5019804E04042401E0090781C0190D5
:10232000C01B029043E0012F00DA01270021112F8A
:1023300001DD112000E038460191009008A911A8A4
:10234000FFF7B6FC13990591119A00211298159286
:102350000091019721070CD40599B94201DB01993D
:1023600000E00191012904DD159A491E515C3029D4
:1023700006D0B84201DA011D05DA0121029115E00B
:102380000199491EEDE7002805DC009941180091EC
:102390000199091A03E0019A411C914200DD019163
:1023A0000099401A401C02900120C00703902007AA
:1023B00006D402990198814202DB0020C0430290BA
:1023C00000206946C87707AF012103980337C90782
:1023D000884224D0022011902B20129003980028CC
:1023E0000CDA404203902D20129007E00A21039856
:1023F000FDF77EFE30317F1E039039701199481E23
:1024000011900029F2DC03980028EFD1791E129870
:1024100008703078202108404530BF1E387006A86B
:10242000C01BC01D039010980078002800D0012028
:10243000019941180298C0170918039809180498BF
:10244000401A401E0490E00306D421461A9B199AB4
:10245000049800F05FF8451910980078002803D020
:102460001A9A199990476D1CE00324D521461A9BAE
:10247000199A049800F04EF845191CE000980028BD
:1024800007DB00990598884203DD1598405C19998F
:1024900001E0199930201A9A904700986D1C401C51
:1024A00000900298401E0290002804D11A9A2E2013
:1024B000199990476D1C0199481E01900029DDDC97
:1024C00005E038781A9A7F1C199990476D1C03997A
:1024D000481E03900029F4DC21461A9B199A04989F
:1024E000ACE600002D0000002B00000020000000E2
:1024F00000000000F8B5044600251E461746880473
:1025000004D405E039462020B0476D1C641EF9D57F
:102510002846F8BDFFB50446002581B01E46C80315
:1025200001D5302700E02027880404D505E038468F
:102530000399B0476D1C641EF9D5284605B0F0BD5F
:10254000F0B54E00864BCF0F760887B005460C4697
:102550009E422ED38348864211D33003000B28437A
:1025600004D02846FFF774FB07B0F0BD002F03D05E
:102570000020014607B0F0BD284607B0F0BD7A4AFA
:102580002846FEF743FA06D20220FFF78BFBFFF73F
:1025900065FB07B0F0BD754A754B28462146FEF72E
:1025A00021FA06D20220FFF77DFBFFF761FB07B09F
:1025B000F0BD704886424AD930466F49E20FD600D6
:1025C000884215D26D4878448019436802682846CD
:1025D0002146FDF741FF0290694803917844811933
:1025E0000868496800900120C01B0191C61B25E0C6
:1025F000644A654B28462146FEF76CF9634A7A44E3
:1026000093191A685B68FDF783FEFEF701F806462A
:10261000FDF7D0FF07465E4A5E4B0091FEF75AF980
:102620002A462346FDF71EFF039102905A4A5B4B50
:1026300038460099FEF74EF9019100900B46009A3A
:1026400003990298FDF708FF05460C4617E0544829
:10265000864213D2534A544B28462146FDF758FE72
:10266000524E00223346FEF7D1F907D200223346FC
:1026700028462146FDF74CFE07B0F0BD00262A464D
:10268000234610461946FEF725F9074602464848F4
:102690000B46049105217844FFF784FA3A46049BDF
:1026A000FEF718F92A462346FDF7DCFE06910121C4
:1026B00089070746002E23D002460020069BFDF71F
:1026C000CBFE059104903A4628462146069BFEF72C
:1026D00001F9059B049AFDF7CDFE019B009AFDF7D9
:1026E000C1FE039B029AFDF7B7FE00222F4BFDF7B8
:1026F000B9FE304A96421EDB3205891807B0F0BD9C
:102700000B4600220699FDF7A7FE064600913A46C1
:1027100028462146069BFEF7DDF83246009BFDF772
:10272000A9FE2A462346FDF797FE00221F4BFDF720
:1027300099FE07B0F0BD7D233205DB05D21889185C
:102740001D4AFDF70FFF0D460446FFF7F3F9042875
:1027500001D1FFF78DFA2046294607B0F0BD0000F1
:10276000422E86400000F07FEF39FAFE51302DD521
:10277000104987C0422ED63FB2A2F03F5E1B000038
:10278000581B0000FE822B654715F73F161B000003
:102790000000E0FE422EE63F763C7935EF39EA3D17
:1027A0000000303E9C7500883CE4377E0000F03F1E
:1027B000AE1A000003FCFFFF18FCFFFF13B56423F3
:1027C000012269460248FEF7D5FE00981CBD0000B4
:1027D0001009002010B5002823D0124B0022001F42
:1027E000196803E0814203D80A4649680029F9D1F3
:1027F000002A0AD01368841A9C4204D10068181871
:102800001060104602E0506000E01860002907D018
:1028100002680B1A934203D10B68D2180260496810
:10282000416010BD4C03002000207047F0B591B00E
:10283000FEF7FEF9FEF739FFFEF70AFFFFF72CF966
:102840002F4C21682FA0FFF741F920682FA0FFF738
:102850003DF90025314E31273F01715D30A0FFF772
:1028600035F91C212846FDF759FC1B2902D12EA061
:10287000FFF72CF96D1CBD42EFDB2C4A0AAB07CAEF
:1028800007C32A4A07AB0C3207CA07C307A8009040
:10289000274B284A284901A800F0F6F8010006D085
:1028A00026A0FFF713F90020C04311B0F0BD07AB1D
:1028B0000AAA022101A800F021F926680DAA07A999
:1028C00001A800F052F905462068801BFDF76BFE59
:1028D000FDF7C2FE02460B461EA120A0FFF7F6F848
:1028E0002068002D07D0294621A0FFF7EFF801A8A6
:1028F00000F015FAFEE70DA800F07AF8F7E70000FF
:102900004003002025640D0A000000006D6E69730D
:10291000742064656D6F0D0A000000000000002047
:102920002533642C000000000D0A000088400008D8
:10293000292800085803002020370008746D206DF6
:102940006F64656C206C6F61642065727220256411
:102950000D0A0000746D5F72756E00003D3D3D25EF
:10296000732075736520252E3366206D730A000071
:10297000746D2072756E206572726F723A202564D4
:102980000D0A0000F0B50B30C108C900144F002635
:10299000144A0FE003688B420BD38B4205D95C1AB3
:1029A0004318456830C3083B00E04368136002C029
:1029B00004E0021D10680028ECD13046002803D145
:1029C0003868002801D00020F0BD064A0648106093
:1029D000064A121AD208D20044C001203860D7E754
:1029E000500300204C0300209C1400209816002067
:1029F000FEB585680020461E04460090A700E859F1
:102A0000FDF72AFE02460B4621460DA0FFF75EF8B1
:102A1000E8590099FDF750FE02D2E8592646009089
:102A2000641C0A2CEADB0098FDF716FE0191009069
:102A30000649B0000A58314605A0FFF747F8FEBD29
:102A400025643A20252E33660D0A0000100300206D
:102A50002323232050726564696374206F7574703A
:102A600075742069733A20436C6173732025642C5C
:102A7000204C61626C652025732C2070726F62207F
:102A8000252E33660D0A000070B504461A4D0868FD
:102A9000049EA84201D0022070BD0879002801D010
:102AA000082070BD002563602160002A0BD0A26061
:102AB000258220680069002810D0FFF763FFE060DE
:102AC000002809D00BE0C868FFF75CFFA060002871
:102AD00002D001202082ECE7042070BDE560658211
:102AE0002068014640311430616107C807C60C3EBA
:102AF000A068B060002070BD4D414958FEB5006827
:102B00001446026E0292406E01906688A0881F46AD
:102B10004643E0884643012905D002291AD0A0681F
:102B200098600020FEBD002511E00198FDF730FD02
:102B30000090A068A90040580299FDF7ABFB0099EE
:102B4000FDF712FBFDF74AFDB96848556D1CB5420B
:102B5000EBDBE6E7002005E0A168BA68095C803994
:102B60001154401CB042F7DBDBE7F7B598B00546DF
:102B70000020179007C911AB07C32868403068616F
:102B800000206882296880B2498988427DD26C69B8
:102B9000002807D0A868A1684018139061692069CF
:102BA00012911190A868E16840181690E169A06937
:102BB0001591149020880300FEF7AFFF06042D380E
:102BC0004A550488214620314EC90DAF68694EC769
:102BD000416CC66B471801462031CB7E8A7E099234
:102BE0000AAAC8C24F7E0E7EC38E4A7D059206AAEF
:102BF000C8C20F7DCE7C8B7C4A7C019202AAC8C2DF
:102C0000097C0091C16C4318816C421814A911A869
:102C100000F094F831E0E16AA06A0191009014A9F3
:102C200011A8636A226A00F0CBFC26E0214620311D
:102C30004EC901AF68694EC7016B41180091816BA5
:102C40004318416B421814A911A800F049FC14E084
:102C5000E16AA06A0191009014A911A8636A226A2E
:102C600000F0F2FC09E0E16AA06A0191009014A969
:102C700011A8636A226A00F0E5FC002827D16A687F
:102C8000002A04D02146284600E046E090476088AC
:102C900000283BD017980C2148431A9940180190FE
:102CA000A169E26906C028684079002811D0678BC5
:102CB000A08BE1684743E08B4743A8684118F81DA3
:102CC0000818C008C0000026009017E005201BB0BF
:102CD000F0BDA868E16841180198816013E0A86818
:102CE000E16840183156E06A081AFDF751FCA16A04
:102CF000FDF793FAB2000099761C8850BE42EEDBD5
:102D00000199009888601798401C1790686961685D
:102D100040186861688A401C33E70020D7E710B587
:102D20000446008A002802D0A068FFF753FDE0683F
:102D3000002801D0FFF74EFD10BD0000FFB599B08F
:102D40002A9D29980E4628432B9D2C9C2843269B80
:102D5000279A3199204300D00120012B01D1012A6B
:102D600002D007201DB0F0BD289A062A0BDA229D5A
:102D7000239A5543192D01DD0920F3E7012D04D1D4
:102D80002D9A104301D00320ECE71998C0880290D7
:102D9000F0880190B0680B908720C005FDF77AFAA3
:102DA000FDF71CFC00240E9018E02F98FDF754FC52
:102DB00000902E98A7000391C059FDF74DFC0246E4
:102DC0000B460020F749FDF755FB039B009AFDF7E2
:102DD00051FBFDF71DFCF449641CC851F088A0426A
:102DE000E3DC012D03D000200246034691E10020E0
:102DF00074E100206BE11998109982882598484366
:102E000042430D992498484319991018C98848439A
:102E100019998968401812901B98089000200A9010
:102E2000DDE0029D0899129A00204B191795ED08D4
:102E3000ED0004461490AC4667E015560F56AE46BA
:102E40006F43149D7F1914971F5675467D432D19A6
:102E5000401C049514560D56A646149F6C43E51964
:102E600014951D5674466C43049D401C6419A64677
:102E700014560D5627466C43149D651914951C561F
:102E8000401C674374463C19A64614560D56274607
:102E90006C43149D651914951C56401C6743744679
:102EA0003C19A64614560D5627466C43149D6519C9
:102EB00014951C56401C674374463C19A64614568C
:102EC0000D5627466C43149D651914951C5667438F
:102ED00074463C19A646401C14560D5627466C43B2
:102EE000149D651914951C56401C674374463C1983
:102EF000A64614560D5627466C43149D6419149427
:102F00001C56674374463C19401CC51D654594D347
:102F10000BE015560F56AC467D43149FED191495E2
:102F20001F5665467D432C19401C179DA842F0D3BF
:102F30000A9909948B001C991498CA5828990691EB
:102F400099498018C95800020B9F0E9D329CFDF7CD
:102F5000E5F80699012902D003290AD102E00028E8
:102F600007DC21E000281FDD03214902884200DD43
:102F70000846684300140019387009A831C8641C59
:102F80001C99A300CA5888498018C9580E9B019300
:102F9000329B289F00026D1C0793FDF7BFF8012F9D
:102FA00004D0032F0CD104E00020E2E7002807DC66
:102FB0001CE000281ADD03214902884200DD084692
:102FC0000199641C48430114079808182870029856
:102FD0006D1C410008980B9508180A940890F08819
:102FE0000A99401E884200DD1BE76AE00020E7E7FF
:102FF000029C0023E508ED001846AC46129A089999
:1030000027E015560F56401C7D43EF1813560D56FA
:10301000401C6B43DF1913560D56401C6B43DF19E0
:1030200013560D56401C6B43DF1913560D56401CAA
:103030006B43DF1913560D56401C6B43DF191356B3
:103040000D56401C6B43DF1913560D566B43DB19AD
:10305000401CC51D6545D4D304E017560D566F437B
:10306000FB18401CA042F8D30A980B9982001C98C8
:10307000289F805806914C491818895800020E9DC7
:10308000329CFDF74BF8012F02D0032F0AD102E04A
:10309000002807DC28E0002826DD032149028842B9
:1030A00000DD0846684300140699001908700B9863
:1030B0000899401C0B900298081808900A98401C28
:1030C0000A90F1880A98814292DC0D98401C0D907C
:1030D000B188814200DD8EE61098401C1090718806
:1030E000814200DD85E6F3E10020DBE700212F4C83
:1030F00005E09700E051029F491CC019521C229F15
:10310000B942F6DB19998C88E11B029C61430818CF
:103110005B1C23998B42E9DB2D98002801D001200C
:1031200001E01998C08802900020CCE112992598FE
:1031300048432999401A10900020BDE11199249824
:1031400048432B99401A1099C20FC90F8B18239A24
:1031500010998C1819994A88944201DD012100E0E8
:1031600000215B182299441819998F88BC4201DD0F
:10317000012100E00021CB420FD1109A3946514382
:10318000081819990024C988084F48431999896873
:10319000049441186437079126E0109900292DDA2C
:1031A00049422CE00000F03F04130020A009002059
:1031B000002006E0C84A8300D25823188A5CFA54DB
:1031C000401CA842F6DB2D986419002805D0014662
:1031D0000498401CFCF7A2FF01E00498401C0799EA
:1031E00041180498401C04902D98002801D0019AA1
:1031F00000E0029A04988242DADC64E00021059142
:10320000002801DA414200E0002104911099511A8E
:10321000239A914200DD11460D91229A391A91426A
:1032200000DD11460891109A394651430918199842
:103230000024C088414319988068081813900F90A3
:103240002D98002801D0019900E00299A248694315
:103250006430309AFCF776FF00202AE0059814E0ED
:10326000229A0499424394460BE0624652189A4BC4
:103270009700DF590F9BDB5DA718974A6432D3553F
:10328000491C089A9142F0DB401C0D998842E7DB0B
:103290002D986419002805D001460398401CFCF7BE
:1032A0003DFF01E00398401C139940180F900398CC
:1032B000401C03902D98002801D0019900E002994C
:1032C00003988142CADC0298834C684364340990B5
:1032D000092873D12D98002870D0002066E002994B
:1032E000002248431B99684340180021A2564156CA
:1032F00001234A4301216156C356032759435318FA
:103300000221022261568256C75751430322A25618
:103310007A4389185A18042104236156C3560E9F14
:1033200059435218052105236156C3565943521873
:10333000062106236156C356594352180721072315
:103340006156C35659435218082108236156C35683
:10335000594350180A998B001C99CA5828990D9105
:103360000B990C915D498018C958329B0002099352
:10337000FCF7D4FE0D99012902D003290AD102E0FD
:10338000002807DC18E0002816DD032149028842E6
:1033900000DD0846784301140998641908180C994F
:1033A00008700B98401C0B900A98401C0A90F188FA
:1033B000814294DC7EE001E00020EBE7002074E035
:1033C00008460299099A48431B996843411800200E
:1033D0000392D208D20084460A9228E023560F5660
:1033E000401C7B4327560A5663445743401CFB1836
:1033F00027560A56401C5743FB1827560A56401CAE
:103400005743FB1827560A56401C5743FB182756AC
:103410000A56401C5743FB1827560A56401C574370
:10342000FB1827560A565743FA189446401C0A9A26
:10343000C31D9342D2D304E022560B565A43944400
:10344000401C039A9042F7D30D9960468B001C995B
:10345000CA5828990C910B990A9120498018C9588B
:103460000E9B03930002329FFCF758FE0C99012932
:1034700002D003290AD102E0002807DC2AE0002854
:1034800028DD03214902884200DD084603994843AC
:1034900000140A99C01908700B98401C0B902D98C5
:1034A000002800D064190D98401C0D90F0880D99EB
:1034B000884285DC1198401C1190B188814200DD62
:1034C0003CE61298401C12907188814200DD2DE686
:1034D000002047E40020D9E7A009002004130020C1
:1034E000FFB5364881B000680198002480680090DC
:1034F0005DE00198039AC58800232846604382183E
:10350000EE08F6001846B446009927E00E56175606
:10351000401C7E43F7180B561656401C7343DF19A8
:103520000B561656401C7343DF190B561656401C9B
:103530007343DF190B561656401C7343DF190B56A5
:103540001656401C7343DF190B561656401C734326
:10355000DF190B5616567343DB19401CC61D664512
:10356000D4D304E00E5617567E43F318401CA842ED
:10357000F8D30498A1004058C5180E98FDF708F834
:1035800006462846FDF704F80B99FCF746FE0A9913
:103590000968FCF742FE0D99FCF77CFE3146FCF70A
:1035A000E3FDFDF71BF8029989680855641C029831
:1035B000C088A0429DDC002005B0F0BD4003002083
:1035C000FFB51F4881B00068002430E00198002654
:1035D00080683246011901988788458809E00020F3
:1035E00004E00023CB5661449E19401C8742F8DC5E
:1035F000521C9542F3DC0B98FCF7CAFF2946009059
:1036000079433046FCF78AFD0499401AFCF7C0FF65
:103610000399FCF702FE0A99FCF73CFE0099FCF7BF
:10362000A3FDFCF7DBFF029989680855641C02982A
:10363000C0888446A042C9DC002005B0F0BD00006F
:103640004003002000207047FFB50546304883B096
:1036500000680498AF6884682E480026029012E043
:10366000B9570698081AFCF793FF0599FCF7D5FDA2
:10367000B100009160500299FDF71EF802D2009847
:1036800020580290761CE888B042E9DC002006460B
:1036900000901CE0B700E0590299FCF7B6FDE0513C
:1036A000FCF7DAFFFEF74CFFFCF7EAFF014601905A
:1036B0000098FCF759FD00900198FCF7CDFF164AE1
:1036C000164BFCF7C9FEFCF7DBFFE051761CE888DF
:1036D000B042DFDC002614E00D98FCF759FF0746E6
:1036E000B00020580099FCF7D5FD0C99FCF7D2FDED
:1036F0003946FCF739FDFCF771FF04998968885554
:10370000761CE888B042E7DC002007B0F0BD00007E
:1037100040030020FFFF7FFF8DEDB5A0F7C6B03E50
:103720004D4149580001010001000600B8050000A4
:103730000000000003001C001C000100010001004B
:1037400001000A000000000000000000000000006E
:103750000000000000000000000000000000000069
:1037600000000000980000000000000010030000AE
:1037700003001C001C00010003000D000D000400EC
:103780008180803B80FFFFFF31E9843C80FFFFFFA9
:10379000030302020101010000000000000000001C
:1037A00000000000500000006000000088000000E1
:1037B0007D774A3C85AD873C2692C53BB9C9483CDC
:1037C0002F5E5B4614C0B081C8320AD86F098127CA
:1037D000F6D67F7950F9162B2B5E60F385997A0A1D
:1037E000816765190000000094FBFFFF94FCFFFF58
:1037F00094410100ABFAFFFF00000000B00100009F
:10380000100300000000000003000D000D00040084
:10381000030006000600080031E9843C80FFFFFF3A
:10382000A02A843C80FFFFFF030302020101010084
:103830000000000000000000000000005000000038
:103840007000000090010000B6E08A3BE0A8363B23
:10385000503DC93B3E4F913B889E573B22A86C3B55
:103860001F259F3BF240713BF10D283E713EA8DAC7
:10387000EFAD3D2C81B5CC0FF2DFDCDCBF9FD1E991
:10388000EAE9D0C3C199F25348E81B34DDC3BAAFAB
:1038900081DBACB1EB2B1309181C202F34205646CA
:1038A0003D12D6DBD4FB003E5B3F485D33553F10F5
:1038B00081C0D3D693BFD5D7CAC9F21B0224F81B47
:1038C000F9F7DFF807FF501CE6B8C71AD2CE0C098B
:1038D00011E1F60E1F2F20FA2E2BC7F80E494719BB
:1038E0002B11F73706E9B9B9E77F4214A1F429D1C2
:1038F000D507F9FC0C1B2F2F251E0702EBDD08A8AE
:10390000B42B1DE41631161FF75C17E00A150825C5
:10391000A4D91A19F9F7F98DA9CB81C0EC1851C4B3
:103920000C400C6524CDCDCD8781CDC29FE475526E
:10393000F808080C8E8A903A1C03773BF1454B0639
:103940004841101A05FE00FFEAAC81ADDAB6CB1390
:10395000EFEAD5C8B30FFDF4FAFE0D044B4C1C4B37
:1039600044093833B0D2178DAFE6DACBDD2E0F0421
:103970003C7F3D245332B0C7E1F12D13E74D24A124
:10398000D8F1B183D0C5C0E2241FFFFFDED1000013
:1039900057C8FEFF53CC0000F376FFFF99FCFFFFF2
:1039A000A01200005E1BFFFF000000005005000099
:1039B0000000000078050000030006000600080073
:1039C0000300020002001000A02A843C80FFFFFFD9
:1039D0000509683D80FFFFFF0303020201010100AA
:1039E0000000000000000000000000005000000087
:1039F0009000000010050000E393AD3C6196683C28
:103A000071D9963CCAA14F3C7B9B6D3C3594A43C3C
:103A1000C1F4A13C36E6833C93D4453C16825F3C1E
:103A200039F8563C8BF0AA3C6839663C581EA33CDA
:103A3000D81B863C38AD9A3CFBF84999FBD682FFEF
:103A400007DFFD164928FD0310100E13FE19312360
:103A50000D81A501DEFB18F8CAF6E1F214F9FF3D6D
:103A6000491F2DF804420513F11B032AFB17DEED55
:103A7000FBE6F6C81605D5324310133840E9052990
:103A8000A4AE2DABA105CA814AD0BAE53DC8BC069B
:103A9000EB2B32F912402ECC10E4045E58032F1A9F
:103AA00033D2F5F4112C08FDDD1711EC4882F23EFB
:103AB000E422112AC80E2A0C53B04B0ACB09F94252
:103AC00047096A30E2FC02BB480AF4DC7FD69DFD60
:103AD000B00712613411CE44C0FD0D1929CFFBCDC2
:103AE000E0EDAEDEE9F7221911E91918D05217DA24
:103AF0001FB4102336EF08DDC2E830D308230224B8
:103B0000991DED120311EEE5DCF2130A261AF202FA
:103B1000F8FCCB845CED1D99F2573EF38AD6D6C1F2
:103B200016058100FD92D936E72517E80519330DF2
:103B300048ACDF15E9F5BDF7F03172231665E2B543
:103B4000F40DEABCF33B5ADF9110E9F720B2FBE930
:103B5000FC0FB63B04041B2595C6D5FAA190DEB92F
:103B60008B39E8C109F9051D1B0F39FFD546F72927
:103B70007A6AFAF7083DAF07564102D7ECE701E051
:103B8000D1B9C194D4EBCADDD6B2E1E10CFC381155
:103B900001EADD2381E410FF00201AC7F43BF9E5B8
:103BA00081E712E0EB070E37F636F6ED2709380C01
:103BB0000DE914EEDE161E2C2222E3FB144508F25A
:103BC000C7F8F9F413DBDE1021DD0406220F1A23F7
:103BD00018EFEC00DED9C4CF0BF0FE37F2EEF44C58
:103BE00048ECBD27FBC4EA0929000C2A2EDCF803A7
:103BF000D1B3160481D309F7D3FAF5D3E0E0C6FFB9
:103C000019F62F01F70A2602F52C110B22FFFC06EC
:103C1000DDFD16D9EB4F1CE0E1E3D515E8F664298C
:103C20003DC32349E1CEDBBCDED9E3D3B00C222A6D
:103C30002C080D0C7FF61BD317E011F6DCFD08CA2B
:103C4000F628F3E3B731092014A818F2E3253BD78F
:103C50001AC5B8E2F20BF81EB9FA3FD1F4CD24DE52
:103C600003411108FDE6DDFC22140F070E2501D8E3
:103C7000022BF994DC1FFAFA7C71EF094D9FB98190
:103C8000E820E6494316D04937DF00F29A159A8FAB
:103C9000D8D346D0DFC8D7F02412FF12F94215F06E
:103CA0001013AEE433A6201EB2DF24DA0671622AB6
:103CB0000A2C34CC27EB3A62F0141F562CCC4E362B
:103CC00048FC901C0DCA1D5816441AEB880F21F9A8
:103CD000FB1E5A2EA70DFB10BFD13BE7112B3CDD7D
:103CE000FB08E2A281D201C3E629AEDE33F1057200
:103CF00029E00705C1CFB7F2EC1851FFE23D350CC2
:103D0000B30632A5AD223DEB7F4592890CC7201248
:103D10003B00521D08B0A3EEDC0F1CFA2B06FA0381
:103D200004E1D216F8DEE93922303F36141F1ECBEB
:103D30003E2BD4A78CF1BDD0E03221FF466BF5FDC0
:103D40005135C8CEA706EFBAF8541E1D3727D6D274
:103D500081F6F9E0EAC4FDFAE44C29FB2AD6C5C68F
:103D60000C31243CFC0E0294F0EA4037221FCEC3F3
:103D7000E2F02A24F6EDDDD5E82A4D592E16111C65
:103D8000152D18C5FAFD1FF8D32BEBE7F6C9DC3467
:103D9000F8D7EED71C0F1D1F9B9FD803303AB402F3
:103DA000CE1A0843E5F8DF28BFD8A992E7BE18E984
:103DB0006E6097022AFBCF070BE8DC052D433C34ED
:103DC0004726099799F2B7159EB4D68B0BBABAEA73
:103DD000D1027F38F13029334C30521D015332BFAC
:103DE000C9E808D7C9E0F9C82ACFE23E0817FD059F
:103DF000C9EEF3D3051AFF160310E23D20EEFFF9DA
:103E00000AEF090A02F9FDDADE2A090807D002D30F
:103E10007FDFEE2C27FFE0F6F70FE9F222FBF5FF3C
:103E20003D5314EB15FEE406DC2711E31B9DD80778
:103E3000ECCDB0EEF8050D2C24F8DFFEEC1B69E6A6
:103E400004DB043B531B3D200700C8DB47D7E0D809
:103E5000C7DEDCE619DCF7EF1433F32DEEACE19CA2
:103E6000FBD5FEFF142D81FCF00306CCE31EDFA280
:103E7000EFEDEB21063C3C7F43F71601372C4DC498
:103E8000F9F5102BFB02D10C08992BFBB4FCE3D500
:103E9000D437CC0429FA5116181903010AE744BF94
:103EA00001F4F7F7E52A6F361F4C0393DBD8E03AAD
:103EB00018F8080E4607E3CEE8580000382700003F
:103EC0000CE2FFFFDC6AFFFF7E85FEFF7617000035
:103ED000EB5AFFFF46CBFFFFB680000031AFFFFF7C
:103EE000DB360000F6EFFFFF0C82FFFF82E2FFFFF0
:103EF0005512FFFFF1BF000001000000300000007C
:103F0000780500000000000003000200020010001D
:103F100001000100010010000509683D80FFFFFF5E
:103F2000211AB73C80FFFFFF0200000030010000B3
:103F300000000000A80500000100010001001000C1
:103F40000100010001000A00211AB73C80FFFFFFB9
:103F5000FD061B3E2A000000400000006800000033
:103F60000801000000000000E9E2AF3C0000000092
:103F70000000000000000000000000000000000041
:103F80000000000000000000000000000000000031
:103F90002AE229BF0BDD09FA42B1F9C246D20FB5B8
:103FA00034EAB317DBFBBC0F24DFCEF91CE0BB38CF
:103FB000B7E2280C049339E3F5EE3CC637F6B64178
:103FC000CABAD7EDC3FD3A0DD21D07A9E90653259C
:103FD00025D71A31F00E8119EFC00A2DB533FBE653
:103FE000DC1D0383E248D928233134E6EBDBDDDC3A
:103FF000E74EC0CF253C98B5ECCC36C33C08F2E385
:104000000DF74144901F2207CB0BB809FEC8BF0B28
:10401000BDF506D24DCC07DF1FFBF92FE6A2260027
:10402000F036FCE9F3EB0EB0BD3FC61CCA4D02F4FE
:10403000BCB2FFFF1AA5FFFFC5C3FFFF1CAAFFFF0D
:1040400044C4FFFF64CCFFFFFB9CFFFF62C3FFFF84
:1040500097BDFFFFE6C9FFFF03000100300000002D
:10406000A8050000000000000100010001000A0096
:104070000100010001000A00FD061B3E2A000000AD
:104080000000803B80FFFFFF03001C001C000100BC
:104090000000002003001C001C00010000000000C4
:1040A000010002000400060008000A000C001000D5
:1040B000200040008000000100000000000000001F
:1040C00000000000000000000000000000000000F0
:1040D00000000000000000000100000002000000DD
:1040E00003000000040000000600000007000000BC
:1040F00008000000090000000000000000000000AF
:1041000000000000000000000100000002000000AC
:104110000300000004000000000000000000E03F79
:10412000000000000000E0BF0000E0FE422EE63F7D
:104130000000E0FE422EE6BF763C7935EF39EA3DDD
:10414000763C7935EF39EABD3E5555555555C53F55
:1041500093BDBE166CC166BF2CDE25AF6A56113FFB
:10416000F16BD2C541BDBBBED0A4BE726937663EFD
:104170003000000031000000320000003300000079
:104180003400000035000000360000003700000059
:104190003800000039000000B8410008000000208D
:1041A00058030000580A00089842000858030020ED
:1041B00040170000941C0008015E000814747DABD9
:1041C000FFFF965D3BA9FD010B14DA1E1B0711D5FD
:1041D0008EB0FDFD7A1734FAFDD2200C051106CE03
:1041E000FD8C354DFBD21905127AF8FD41431F12A3
:1041F0000B12D1FD1C51061675F7FDC60A06174CA9
:10420000F7FDE73F051780FDFD900616B0F6FD9F10
:104210000C061719EAFDE9230517C6FDFD8D0D15DE
:104220004EF8FDBD520B1813C8370D1586FDFDADB8
:1042300037110518F8FDFD19191C1B2B1401120567
:10424000A80A05141425969696930A1C39015CA8B1
:104250008FA60A927B5AAE122901A008F9F7F7A996
:104260007575392D767B7B7B3305939B7B7B29137F
:1042700070411B0874041A78041A7C041A80041A0A
:1042800084041A88041A8C041A90041A94043201C3
:084290008204031124F4000074
:04000005080000C12E
:00000001FF
